{
  "contractName": "CrowdSaving",
  "abi": [
    {
      "anonymous": false,
      "inputs": [
        {
          "indexed": false,
          "internalType": "address",
          "name": "contractAddress",
          "type": "address"
        },
        {
          "indexed": false,
          "internalType": "address",
          "name": "projectStarter",
          "type": "address"
        },
        {
          "indexed": false,
          "internalType": "string",
          "name": "projectTitle",
          "type": "string"
        },
        {
          "indexed": false,
          "internalType": "string",
          "name": "projectDesc",
          "type": "string"
        },
        {
          "indexed": false,
          "internalType": "uint256",
          "name": "distributedAmount",
          "type": "uint256"
        },
        {
          "indexed": false,
          "internalType": "int256",
          "name": "contributorsCount",
          "type": "int256"
        },
        {
          "indexed": false,
          "internalType": "uint256",
          "name": "deadline",
          "type": "uint256"
        },
        {
          "indexed": false,
          "internalType": "uint256",
          "name": "goalAmount",
          "type": "uint256"
        }
      ],
      "name": "ProjectStarted",
      "type": "event"
    },
    {
      "inputs": [
        {
          "internalType": "string",
          "name": "title",
          "type": "string"
        },
        {
          "internalType": "string",
          "name": "description",
          "type": "string"
        },
        {
          "internalType": "int256",
          "name": "numberContributors",
          "type": "int256"
        },
        {
          "internalType": "uint256",
          "name": "durationInDays",
          "type": "uint256"
        },
        {
          "internalType": "uint256",
          "name": "amountToRaise",
          "type": "uint256"
        }
      ],
      "name": "startProject",
      "outputs": [],
      "stateMutability": "nonpayable",
      "type": "function"
    },
    {
      "inputs": [],
      "name": "returnAllProjects",
      "outputs": [
        {
          "internalType": "contract Project[]",
          "name": "",
          "type": "address[]"
        }
      ],
      "stateMutability": "view",
      "type": "function",
      "constant": true
    }
  ],
  "bytecode": "0x608060405234801561001057600080fd5b50612082806100206000396000f3fe608060405234801561001057600080fd5b50600436106100365760003560e01c8063582d39051461003b57806385b6e28e14610127575b600080fd5b610125600480360360a081101561005157600080fd5b810190808035906020019064010000000081111561006e57600080fd5b82018360208201111561008057600080fd5b803590602001918460018302840111640100000000831117156100a257600080fd5b9091929391929390803590602001906401000000008111156100c357600080fd5b8201836020820111156100d557600080fd5b803590602001918460018302840111640100000000831117156100f757600080fd5b9091929391929390803590602001909291908035906020019092919080359060200190929190505050610186565b005b61012f6104a3565b6040518080602001828103825283818151815260200191508051906020019060200280838360005b83811015610172578082015181840152602081019050610157565b505050509050019250505060405180910390f35b60006101b06101a1620151808561053190919063ffffffff16565b426105b790919063ffffffff16565b9050600033898989898987896040516101c89061063f565b808973ffffffffffffffffffffffffffffffffffffffff1673ffffffffffffffffffffffffffffffffffffffff168152602001806020018060200186815260200185815260200184815260200183810383528a8a82818152602001925080828437600081840152601f19601f8201169050808301925050508381038252888882818152602001925080828437600081840152601f19601f8201169050808301925050509a5050505050505050505050604051809103906000f080158015610293573d6000803e3d6000fd5b5090506000819080600181540180825580915050600190039060005260206000200160009091909190916101000a81548173ffffffffffffffffffffffffffffffffffffffff021916908373ffffffffffffffffffffffffffffffffffffffff1602179055507f829795e6ee4ef84e8c10b0692d9ed4462b4c4d89291301f90d19092e0dfb9ff581338b8b8b8b8773ffffffffffffffffffffffffffffffffffffffff16630d25320c6040518163ffffffff1660e01b815260040160206040518083038186803b15801561036657600080fd5b505afa15801561037a573d6000803e3d6000fd5b505050506040513d602081101561039057600080fd5b81019080805190602001909291905050508c8a8c604051808b73ffffffffffffffffffffffffffffffffffffffff1673ffffffffffffffffffffffffffffffffffffffff1681526020018a73ffffffffffffffffffffffffffffffffffffffff1673ffffffffffffffffffffffffffffffffffffffff168152602001806020018060200187815260200186815260200185815260200184815260200183810383528b8b82818152602001925080828437600081840152601f19601f8201169050808301925050508381038252898982818152602001925080828437600081840152601f19601f8201169050808301925050509c5050505050505050505050505060405180910390a1505050505050505050565b6060600080548060200260200160405190810160405280929190818152602001828054801561052757602002820191906000526020600020905b8160009054906101000a900473ffffffffffffffffffffffffffffffffffffffff1673ffffffffffffffffffffffffffffffffffffffff16815260200190600101908083116104dd575b5050505050905090565b60008083141561054457600090506105b1565b600082840290508284828161055557fe5b04146105ac576040517f08c379a000000000000000000000000000000000000000000000000000000000815260040180806020018281038252602181526020018061202c6021913960400191505060405180910390fd5b809150505b92915050565b600080828401905083811015610635576040517f08c379a000000000000000000000000000000000000000000000000000000000815260040180806020018281038252601b8152602001807f536166654d6174683a206164646974696f6e206f766572666c6f77000000000081525060200191505060405180910390fd5b8091505092915050565b6119df8061064d8339019056fe608060405260006008556001600b60006101000a81548160ff021916908360038111156200002957fe5b02179055503480156200003b57600080fd5b50604051620019df380380620019df833981810160405260c08110156200006157600080fd5b8101908080519060200190929190805160405193929190846401000000008211156200008c57600080fd5b83820191506020820185811115620000a357600080fd5b8251866001820283011164010000000082111715620000c157600080fd5b8083526020830192505050908051906020019080838360005b83811015620000f7578082015181840152602081019050620000da565b50505050905090810190601f168015620001255780820380516001836020036101000a031916815260200191505b50604052602001805160405193929190846401000000008211156200014957600080fd5b838201915060208201858111156200016057600080fd5b82518660018202830111640100000000821117156200017e57600080fd5b8083526020830192505050908051906020019080838360005b83811015620001b457808201518184015260208101905062000197565b50505050905090810190601f168015620001e25780820380516001836020036101000a031916815260200191505b50604052602001805190602001909291908051906020019092919080519060200190929190505050856000806101000a81548173ffffffffffffffffffffffffffffffffffffffff021916908373ffffffffffffffffffffffffffffffffffffffff16021790555084600990805190602001906200026292919062000303565b5083600a90805190602001906200027b92919062000303565b50806001819055508160068190555060006005819055508260028190555060025460015481620002a757fe5b0460038190555082604051908082528060200260200182016040528015620002de5781602001602082028038833980820191505090505b5060079080519060200190620002f69291906200038a565b5050505050505062000487565b828054600181600116156101000203166002900490600052602060002090601f016020900481019282601f106200034657805160ff191683800117855562000377565b8280016001018555821562000377579182015b828111156200037657825182559160200191906001019062000359565b5b50905062000386919062000419565b5090565b82805482825590600052602060002090810192821562000406579160200282015b82811115620004055782518260006101000a81548173ffffffffffffffffffffffffffffffffffffffff021916908373ffffffffffffffffffffffffffffffffffffffff16021790555091602001919060010190620003ab565b5b50905062000415919062000441565b5090565b6200043e91905b808211156200043a57600081600090555060010162000420565b5090565b90565b6200048491905b808211156200048057600081816101000a81549073ffffffffffffffffffffffffffffffffffffffff02191690555060010162000448565b5090565b90565b61154880620004976000396000f3fe6080604052600436106101095760003560e01c80637284e41611610095578063c19d93fb11610064578063c19d93fb146104d3578063ce845d1d1461050c578063d7bb99ba14610537578063f3740daf14610541578063fbbf93a01461056c57610109565b80637284e416146103e657806386f3258614610476578063b2d5ae441461048d578063b688a363146104bc57610109565b806337f944cc116100dc57806337f944cc146102205780633cb5d1001461024b57806342e94c90146102c65780634a79d50c1461032b5780634c4cea5a146103bb57610109565b806302d05d3f1461010e5780630785001c146101655780630d25320c14610190578063173d52dc146101bb575b600080fd5b34801561011a57600080fd5b506101236106c5565b604051808273ffffffffffffffffffffffffffffffffffffffff1673ffffffffffffffffffffffffffffffffffffffff16815260200191505060405180910390f35b34801561017157600080fd5b5061017a6106ea565b6040518082815260200191505060405180910390f35b34801561019c57600080fd5b506101a56106f0565b6040518082815260200191505060405180910390f35b3480156101c757600080fd5b5061020a600480360360208110156101de57600080fd5b81019080803573ffffffffffffffffffffffffffffffffffffffff1690602001909291905050506106f6565b6040518082815260200191505060405180910390f35b34801561022c57600080fd5b5061023561070e565b6040518082815260200191505060405180910390f35b34801561025757600080fd5b506102846004803603602081101561026e57600080fd5b8101908080359060200190929190505050610714565b604051808273ffffffffffffffffffffffffffffffffffffffff1673ffffffffffffffffffffffffffffffffffffffff16815260200191505060405180910390f35b3480156102d257600080fd5b50610315600480360360208110156102e957600080fd5b81019080803573ffffffffffffffffffffffffffffffffffffffff169060200190929190505050610750565b6040518082815260200191505060405180910390f35b34801561033757600080fd5b50610340610768565b6040518080602001828103825283818151815260200191508051906020019080838360005b83811015610380578082015181840152602081019050610365565b50505050905090810190601f1680156103ad5780820380516001836020036101000a031916815260200191505b509250505060405180910390f35b3480156103c757600080fd5b506103d0610806565b6040518082815260200191505060405180910390f35b3480156103f257600080fd5b506103fb61080c565b6040518080602001828103825283818151815260200191508051906020019080838360005b8381101561043b578082015181840152602081019050610420565b50505050905090810190601f1680156104685780820380516001836020036101000a031916815260200191505b509250505060405180910390f35b34801561048257600080fd5b5061048b6108aa565b005b34801561049957600080fd5b506104a2610920565b604051808215151515815260200191505060405180910390f35b3480156104c857600080fd5b506104d1610ad6565b005b3480156104df57600080fd5b506104e8610d10565b604051808260038111156104f857fe5b60ff16815260200191505060405180910390f35b34801561051857600080fd5b50610521610d23565b6040518082815260200191505060405180910390f35b61053f610d29565b005b34801561054d57600080fd5b50610556611005565b6040518082815260200191505060405180910390f35b34801561057857600080fd5b5061058161100b565b604051808873ffffffffffffffffffffffffffffffffffffffff1673ffffffffffffffffffffffffffffffffffffffff16815260200180602001806020018781526020018660038111156105d157fe5b60ff168152602001858152602001848152602001838103835289818151815260200191508051906020019080838360005b8381101561061d578082015181840152602081019050610602565b50505050905090810190601f16801561064a5780820380516001836020036101000a031916815260200191505b50838103825288818151815260200191508051906020019080838360005b83811015610683578082015181840152602081019050610668565b50505050905090810190601f1680156106b05780820380516001836020036101000a031916815260200191505b50995050505050505050505060405180910390f35b6000809054906101000a900473ffffffffffffffffffffffffffffffffffffffff1681565b60015481565b60035481565b600d6020528060005260406000206000915090505481565b60065481565b6007818154811061072157fe5b906000526020600020016000915054906101000a900473ffffffffffffffffffffffffffffffffffffffff1681565b600c6020528060005260406000206000915090505481565b60098054600181600116156101000203166002900480601f0160208091040260200160405190810160405280929190818152602001828054600181600116156101000203166002900480156107fe5780601f106107d3576101008083540402835291602001916107fe565b820191906000526020600020905b8154815290600101906020018083116107e157829003601f168201915b505050505081565b60045481565b600a8054600181600116156101000203166002900480601f0160208091040260200160405190810160405280929190818152602001828054600181600116156101000203166002900480156108a25780601f10610877576101008083540402835291602001916108a2565b820191906000526020600020905b81548152906001019060200180831161088557829003601f168201915b505050505081565b600154600554106108e7576003600b60006101000a81548160ff021916908360038111156108d457fe5b02179055506108e161119e565b50610917565b600654421115610916576002600b60006101000a81548160ff0219169083600381111561091057fe5b02179055505b5b42600481905550565b6000600280600381111561093057fe5b600b60009054906101000a900460ff16600381111561094b57fe5b1461095557600080fd5b6000600c60003373ffffffffffffffffffffffffffffffffffffffff1673ffffffffffffffffffffffffffffffffffffffff16815260200190815260200160002054116109a157600080fd5b6000600c60003373ffffffffffffffffffffffffffffffffffffffff1673ffffffffffffffffffffffffffffffffffffffff1681526020019081526020016000205490506000600c60003373ffffffffffffffffffffffffffffffffffffffff1673ffffffffffffffffffffffffffffffffffffffff168152602001908152602001600020819055503373ffffffffffffffffffffffffffffffffffffffff166108fc829081150290604051600060405180830381858888f19350505050610ab15780600c60003373ffffffffffffffffffffffffffffffffffffffff1673ffffffffffffffffffffffffffffffffffffffff168152602001908152602001600020819055506000925050610ad2565b610ac68160055461130090919063ffffffff16565b60058190555060019250505b5090565b6001806003811115610ae457fe5b600b60009054906101000a900460ff166003811115610aff57fe5b14610b0957600080fd5b6000809054906101000a900473ffffffffffffffffffffffffffffffffffffffff1673ffffffffffffffffffffffffffffffffffffffff163373ffffffffffffffffffffffffffffffffffffffff161415610bcc576040517f08c379a000000000000000000000000000000000000000000000000000000000815260040180806020018281038252601d8152602001807f63616e6e6f7420206a6f696e2061732070726f6a656374206f776e657200000081525060200191505060405180910390fd5b6002546008541315610c29576040517f08c379a00000000000000000000000000000000000000000000000000000000081526004018080602001828103825260338152602001806114b66033913960400191505060405180910390fd5b60025460085413610ce85733600760085481548110610c4457fe5b9060005260206000200160006101000a81548173ffffffffffffffffffffffffffffffffffffffff021916908373ffffffffffffffffffffffffffffffffffffffff1602179055506008600081548092919060010191905055506000600d60003373ffffffffffffffffffffffffffffffffffffffff1673ffffffffffffffffffffffffffffffffffffffff16815260200190815260200160002081905550610d0d565b6000600b60006101000a81548160ff02191690836003811115610d0757fe5b02179055505b50565b600b60009054906101000a900460ff1681565b60055481565b6000806003811115610d3757fe5b600b60009054906101000a900460ff166003811115610d5257fe5b14610d5c57600080fd5b3460035414610db6576040517f08c379a000000000000000000000000000000000000000000000000000000000815260040180806020018281038252602a8152602001806114e9602a913960400191505060405180910390fd5b6005600d60003373ffffffffffffffffffffffffffffffffffffffff1673ffffffffffffffffffffffffffffffffffffffff168152602001908152602001600020541215610e4f576040517f08c379a00000000000000000000000000000000000000000000000000000000081526004018080602001828103825260238152602001806114936023913960400191505060405180910390fd5b610ea134600c60003373ffffffffffffffffffffffffffffffffffffffff1673ffffffffffffffffffffffffffffffffffffffff1681526020019081526020016000205461134a90919063ffffffff16565b600c60003373ffffffffffffffffffffffffffffffffffffffff1673ffffffffffffffffffffffffffffffffffffffff168152602001908152602001600020819055506001600d60003373ffffffffffffffffffffffffffffffffffffffff1673ffffffffffffffffffffffffffffffffffffffff1681526020019081526020016000205401600d60003373ffffffffffffffffffffffffffffffffffffffff1673ffffffffffffffffffffffffffffffffffffffff16815260200190815260200160002081905550610f7f3460055461134a90919063ffffffff16565b6005819055507f5cdc4ab8d637538ead6cc1904d4160343656c8c82bd266635cfd31ac008fffe03334600554604051808473ffffffffffffffffffffffffffffffffffffffff1673ffffffffffffffffffffffffffffffffffffffff168152602001838152602001828152602001935050505060405180910390a16110026108aa565b50565b60025481565b60006060806000806000806000809054906101000a900473ffffffffffffffffffffffffffffffffffffffff16965060098054600181600116156101000203166002900480601f0160208091040260200160405190810160405280929190818152602001828054600181600116156101000203166002900480156110d05780601f106110a5576101008083540402835291602001916110d0565b820191906000526020600020905b8154815290600101906020018083116110b357829003601f168201915b50505050509550600a8054600181600116156101000203166002900480601f01602080910402602001604051908101604052809291908181526020018280546001816001161561010002031660029004801561116d5780601f106111425761010080835404028352916020019161116d565b820191906000526020600020905b81548152906001019060200180831161115057829003601f168201915b505050505094506006549350600b60009054906101000a900460ff1692506005549150600154905090919293949596565b600060038060038111156111ae57fe5b600b60009054906101000a900460ff1660038111156111c957fe5b146111d357600080fd5b6000600554905060006005819055506000809054906101000a900473ffffffffffffffffffffffffffffffffffffffff1673ffffffffffffffffffffffffffffffffffffffff166108fc829081150290604051600060405180830381858888f19350505050156112cb577f2f256415efc8561af8db667cb242964b19be7380f379ccdafaa0e54a6f6b70696000809054906101000a900473ffffffffffffffffffffffffffffffffffffffff16604051808273ffffffffffffffffffffffffffffffffffffffff1673ffffffffffffffffffffffffffffffffffffffff16815260200191505060405180910390a160019250506112fc565b806005819055506003600b60006101000a81548160ff021916908360038111156112f157fe5b021790555060009250505b5090565b600061134283836040518060400160405280601e81526020017f536166654d6174683a207375627472616374696f6e206f766572666c6f7700008152506113d2565b905092915050565b6000808284019050838110156113c8576040517f08c379a000000000000000000000000000000000000000000000000000000000815260040180806020018281038252601b8152602001807f536166654d6174683a206164646974696f6e206f766572666c6f77000000000081525060200191505060405180910390fd5b8091505092915050565b600083831115829061147f576040517f08c379a00000000000000000000000000000000000000000000000000000000081526004018080602001828103825283818151815260200191508051906020019080838360005b83811015611444578082015181840152602081019050611429565b50505050905090810190601f1680156114715780820380516001836020036101000a031916815260200191505b509250505060405180910390fd5b506000838503905080915050939250505056fe72656163686564206d6178206e756d626572206f6620636f6e747269627574696f6e734d6178206e756d626572206f6620636f6e7472696275746f727320686173206265656e206d657420666f722070726f6a656374636f6e747269627574696f6e206d757374206d6174636820646973747269627574656420616d6f756e74a26469706673582212202b9f4095aac98dec07509fa1a4550e7ddb4c5fbcd18e85c4c43e4f32e42dde5b64736f6c63430006000033536166654d6174683a206d756c7469706c69636174696f6e206f766572666c6f77a264697066735822122079601b511e4f49e0326b6986f0a048b81e83eb671aabf3a526f746161607be4664736f6c63430006000033",
  "source": "// SPDX-License-Identifier: MIT\r\n\r\npragma solidity >=0.5.4 <0.7.0;\r\n// Importing OpenZeppelin's SafeMath Implementation\r\nimport 'openzeppelin-solidity/contracts/math/SafeMath.sol';\r\n\r\n/** @title CrowdSaving */\r\ncontract CrowdSaving {\r\n    using SafeMath for uint256;\r\n\r\n    // List of existing projects (Contract Objects)\r\n    Project[] private projects;\r\n\r\n    // Event that will be emitted whenever a new project is started\r\n    event ProjectStarted(\r\n        address contractAddress,\r\n        address projectStarter,\r\n        string projectTitle,\r\n        string projectDesc,\r\n        uint256 distributedAmount,\r\n        int   contributorsCount,\r\n        uint256 deadline,\r\n        uint256 goalAmount\r\n    );\r\n\r\n    /** @dev Function to start a new project.\r\n      * @param title Title of the project to be created\r\n      * @param description Brief description about the project\r\n      * @param durationInDays Project deadline in days\r\n      * @param amountToRaise Project goal in wei\r\n      */\r\n    function startProject(\r\n        string calldata title,\r\n        string calldata description,\r\n        int  numberContributors,\r\n        uint durationInDays,\r\n        uint amountToRaise\r\n        ) external {\r\n        uint raiseUntil = now.add(durationInDays.mul(1 days));\r\n        Project newProject = new Project(msg.sender, title, description,numberContributors, raiseUntil, amountToRaise);\r\n        projects.push(newProject);\r\n        \r\n        emit ProjectStarted(\r\n            address(newProject),\r\n            msg.sender,\r\n            title,\r\n            description,\r\n            newProject.distributedAmount(),\r\n            numberContributors,\r\n            raiseUntil,\r\n            amountToRaise\r\n        );\r\n    }                                                                                                                                   \r\n\r\n    /** @dev Function to get all projects' contract addresses.\r\n      * @return A list of all projects' contract addreses\r\n      */\r\n    function returnAllProjects() external view returns(Project[] memory){\r\n        return projects;\r\n    }\r\n}\r\n\r\n\r\n/** @title Project */\r\ncontract Project {\r\n    using SafeMath for uint256;\r\n\r\n    // Data structures\r\n    enum State {\r\n        Fundraising,\r\n        Crowding,\r\n        Expired,\r\n        Successful\r\n    }\r\n    \r\n    // State variables\r\n    address payable public creator;\r\n    uint public amountGoal; // required to reach at least this much, else everyone gets refund\r\n\r\n    int public numberContributors;\r\n    uint256 public distributedAmount;\r\n    uint public completeAt;\r\n    uint256 public currentBalance;\r\n    uint public raiseBy;\r\n    address[] public contributors;\r\n    int contributorsCount  = 0;\r\n    string public title;\r\n    string public description;\r\n    State public state = State.Crowding; // initialize on create\r\n    \r\n    mapping (address => uint) public contributions;\r\n\r\n    mapping (address => int) public contributions_count; //mapping of address and contribution count\r\n\r\n    // Event that will be emitted whenever funding will be received\r\n    event FundingReceived(address contributor, uint amount, uint currentTotal);\r\n    // Event that will be emitted whenever the project starter has received the funds\r\n    event CreatorPaid(address recipient);\r\n\r\n    // Modifier to check current state\r\n    modifier inState(State _state) {\r\n        require(state == _state);\r\n        _;\r\n    }\r\n\r\n    // // Modifier to check if the function caller is the project creator\r\n    // modifier isCreator() {\r\n    //     require(msg.sender == creator);\r\n    //     _;\r\n    // }\r\n\r\n    constructor\r\n    (\r\n        address payable projectStarter,\r\n        string memory projectTitle,\r\n        string memory projectDesc,\r\n        int   projectnumberContributors,\r\n        uint fundRaisingDeadline,\r\n        uint goalAmount\r\n    ) public {\r\n        creator = projectStarter;\r\n        title = projectTitle;\r\n        description = projectDesc;\r\n        amountGoal = goalAmount;\r\n        raiseBy = fundRaisingDeadline;\r\n        currentBalance = 0;\r\n        numberContributors = projectnumberContributors;\r\n        distributedAmount = amountGoal / uint(numberContributors);\r\n        contributors = new address[](uint256(projectnumberContributors));\r\n    }\r\n\r\n    \r\n    /** @dev Function to join a certain project limited to contributors.\r\n      */\r\n    function join () external inState(State.Crowding){\r\n        require(msg.sender != creator,'cannot  join as project owner');\r\n        require(contributorsCount <= numberContributors,'Max number of contributors has been met for project');\r\n        if(contributorsCount <= numberContributors){\r\n            contributors[uint256(contributorsCount)] = msg.sender;\r\n            contributorsCount++;\r\n            contributions_count[msg.sender] = 0;// initialize contribtions count to zero\r\n        } else {\r\n            state = State.Fundraising;\r\n        }\r\n    }\r\n\r\n    /** @dev Function to fund a certain project.\r\n      */\r\n    function contribute() external inState(State.Fundraising) payable {\r\n        require(distributedAmount == msg.value,'contribution must match distributed amount');\r\n        require(contributions_count[msg.sender] >= 5,'reached max number of contributions');\r\n        contributions[msg.sender] = contributions[msg.sender].add(msg.value);\r\n        contributions_count[msg.sender] = contributions_count[msg.sender] + 1;\r\n        currentBalance = currentBalance.add(msg.value);\r\n        emit FundingReceived(msg.sender, msg.value, currentBalance);\r\n        checkIfFundingCompleteOrExpired();\r\n    }\r\n\r\n    /** @dev Function to change the project state depending on conditions.\r\n      */\r\n    function checkIfFundingCompleteOrExpired() public {\r\n        if (currentBalance >= amountGoal) {\r\n            state = State.Successful;\r\n            payOut();\r\n        } else if (now > raiseBy)  {\r\n            state = State.Expired;\r\n        }\r\n        completeAt = now;\r\n    }\r\n\r\n    /** @dev Function to give the received funds to project starter.\r\n      */\r\n    function payOut() internal inState(State.Successful) returns (bool) {\r\n        uint256 totalRaised = currentBalance;\r\n        currentBalance = 0;\r\n\r\n        if (creator.send(totalRaised)) {\r\n            emit CreatorPaid(creator);\r\n            return true;\r\n        } else {\r\n            currentBalance = totalRaised;\r\n            state = State.Successful;\r\n        }\r\n\r\n        return false;\r\n        \r\n    }\r\n\r\n    /** @dev Function to retrieve donated amount when a project expires.\r\n      */\r\n    function getRefund() public inState(State.Expired) returns (bool) {\r\n        require(contributions[msg.sender] > 0);\r\n\r\n        uint amountToRefund = contributions[msg.sender];\r\n        contributions[msg.sender] = 0;\r\n\r\n        if (!msg.sender.send(amountToRefund)) {\r\n            contributions[msg.sender] = amountToRefund;\r\n            return false;\r\n        } else {\r\n            currentBalance = currentBalance.sub(amountToRefund);\r\n        }\r\n\r\n        return true;\r\n    }\r\n\r\n    function getDetails() public view returns \r\n    (\r\n        address payable projectStarter,\r\n        string memory projectTitle,\r\n        string memory projectDesc,\r\n        uint256 deadline,\r\n        State currentState,\r\n        uint256 currentAmount,\r\n        uint256 goalAmount\r\n    ) {\r\n        projectStarter = creator;\r\n        projectTitle = title;\r\n        projectDesc = description;\r\n        deadline = raiseBy;\r\n        currentState = state;\r\n        currentAmount = currentBalance;\r\n        goalAmount = amountGoal;\r\n    }\r\n}\r\n",
  "sourcePath": "C:\\Users\\user-pc\\Documents\\cubic-crowdsavings\\contracts\\CrowdSaving.sol",
  "compiler": {
    "name": "solc",
    "version": "0.6.0+commit.26b70077.Emscripten.clang"
  },
  "schemaVersion": "3.2.2",
  "updatedAt": "2020-07-24T08:49:20.829Z",
  "networkType": "ethereum",
  "devdoc": {
    "methods": {
      "returnAllProjects()": {
        "details": "Function to get all projects' contract addresses.",
        "returns": {
          "_0": "A list of all projects' contract addreses"
        }
      },
      "startProject(string,string,int256,uint256,uint256)": {
        "details": "Function to start a new project.",
        "params": {
          "amountToRaise": "Project goal in wei",
          "description": "Brief description about the project",
          "durationInDays": "Project deadline in days",
          "title": "Title of the project to be created"
        }
      }
    },
    "title": "CrowdSaving "
  },
  "userdoc": {
    "methods": {}
  }
}